:020000040800F2
:105000008008002021510008017000088168000814
:10501000FD6F0008A55D00086D8500080000000018
:105020000000000000000000000000001D790008E2
:10503000556200080000000011720008C97A0008DB
:105040003B5100083B5100083B5100083B51000810
:105050003B5100083B5100083B5100083B51000800
:105060003B5100083B5100083B5100083B510008F0
:105070003B5100083B5100083B5100083B510008E0
:10508000A15F00083B5100083B5100083B5100085C
:105090003B5100083B5100083B5100083B510008C0
:1050A0003B5100083B5100083B5100083B510008B0
:1050B0002D7B0008097C0008057D00083B51000895
:1050C0003B5100083B5100083B5100083B51000890
:1050D0003B5100083B510008E18000083B510008AB
:1050E0003B5100083B5100083B510008DFF80CD051
:1050F00000F0B0FA004800475D87000880080020F3
:10510000EFF30980704780F309887047EFF3088058
:10511000704780F30888704740BA7047C0BA70473C
:105120000648804706480047FEE7FEE7FEE7FEE741
:10513000FEE7FEE7FEE7FEE7FEE7FEE7CD7A0008C2
:10514000ED500008D2B201E000F8012B491EFBD25D
:1051500070470022F6E710B513460A460446194682
:10516000FFF7F0FF204610BD2DE9FE4F804681EA93
:105170000300C00F0C46009021F0004123F00045D1
:10518000B8EB0200A94105D24046214690461C4694
:105190000B46024623F00040104347D0270DC7F3CB
:1051A0000A00C3F30A510290401A019040286BDABA
:1051B000C3F3130040F4801B0098924620B10023F3
:1051C000D2EB030A63EB0B0B01985946C0F1400286
:1051D000504600F077F906460D4650465946019A6A
:1051E00000F08FF910EB08006141002487EA1152AA
:1051F00084EAE7731A4340D0009A62B3019A012A05
:105200004FEA075215DC001B61EB02014FF0004230
:1052100002EA0752CDE90042001C41F580113246F6
:105220002B4600F08DF903B0BDE8F08F40462146D3
:10523000F9E7001B61EB0201001C41F58013001827
:105240005B412018A2F5001747EB030140EAD57037
:10525000B6196D4111E06D084FEA360645EAC07592
:105260004FEA0752001B61EB0201001C41F580115F
:1052700049084FEA30000019514132462B4603B02D
:10528000BDE8F04F00F04FB9009801224000002324
:10529000D0EB020263EBE073009821464FEAE07422
:1052A000B8EB000061EB0401E9E783F000435BE742
:1052B00081F0004158E72DE9FE4F81EA030404F034
:1052C000004421F0004100944FF0000B23F0004314
:1052D00050EA01045ED052EA03045BD0C3F30A54DF
:1052E000C1F30A552C44A4F2F3340194A0FB0254F8
:1052F000C1F3130141F48011C3F3130343F480138A
:1053000001FB024400FB034E840A970A44EA8154DD
:1053100047EA8357A4FB076802958D0A05FB0785BA
:105320004FEA932C04FB0C542705029D4FEA0658C4
:1053300047EA1637B5EB08056EEB070C870E920EA1
:1053400047EA811742EA8312A7FB0201B6EB0B0181
:1053500064EB00042B0D43EA0C335E1844EB1C5045
:10536000DA465146E7FB0201C5F313044FEA0B335B
:1053700043EA14534FEA0432019C43EA0603A4F1C2
:105380000C040294009CCDE900B400F0D9F803B0FD
:10539000BDE8F08F00200146F9E72DE9F04D81EAE4
:1053A000030404F0004B21F0004514464FF0000ABE
:1053B00023F0004150EA050220D054EA01021DD03A
:1053C000C5F30A570246C5F31303C1F31300C1F333
:1053D0000A5640F4801543F48013A7EB0608101B0F
:1053E000D64608F2FD3873EB050002D308F1010838
:1053F00001E092185B41B8F1000F03DA002001468A
:10540000BDE8F08D00204FF48011064684460EE082
:10541000171B73EB050705D3121B63EB050306434C
:105420004CEA010C49084FEA300092185B4150EAFF
:105430000107EDD152EA030012D082EA040083EAA8
:105440000501084305D0101BAB4106D20122002301
:1054500006E000224FF0004302E06FF0010253101B
:105460001AEB06004CEB085110EB0A0041EB0B0164
:10547000BDE8F04D00F057B80EB540F2334102914F
:105480000021CDE900110A460B4600F059F803B09F
:1054900000BDC1F30A5210B5C1F3130140F2FF334E
:1054A00041F480119A4201DA002010BD40F23343EA
:1054B0009A42A2F2334203DC524200F012F810BDCD
:1054C000904010BD202A04DB203A00FA02F10020AF
:1054D00070479140C2F1200320FA03F31943904032
:1054E0007047202A04DB203A21FA02F0002170479D
:1054F00021FA02F3D040C2F120029140084319463C
:105500007047202A06DBCB17203A41FA02F043EA23
:10551000E07306E041FA02F3D040C2F1200291406C
:1055200008431946704710B5002B08DA401C41F1BA
:10553000000192185B411A4301D120F0010010BD17
:105540002DE9F04D92469B4611B1B1FA81F202E08D
:10555000B0FA80F220329046FFF7B4FF04460F46BF
:1055600040EA0A0041EA0B0153465A46084313D069
:10557000114653EA010019D0C8F140025046FFF726
:10558000B0FF05460E46504659464246FFF79AFF81
:10559000084305D0012004E020463946BDE8F08DDF
:1055A0000020054346EAE0762C4337430A9863051A
:1055B000E40AA0EB08000022FD0A44EA47540A303E
:1055C00002D500200146E9E7010510196941DDE92E
:1055D000084500196941BDE8F04DA4E770B521F018
:1055E000004303430CD0C1F30A550024D5EB040556
:1055F00064EB0403D617AD1AB34102DB0020014669
:1056000070BD201841EB025170BD0EB5C10F80EA8C
:10561000E0700844CA07002140F233438DE80E00D1
:105620000A460B46FFF78CFF03B000BD30B50029DA
:1056300004DB4FF00044404264EB0101002B04DB2B
:105640004FF00044524264EB0303994208BF90427A
:1056500030BD0000064C074D06E0E06840F0010355
:1056600094E8070098471034AC42F6D3FFF742FDA8
:1056700088980008A89800082DE9F04D00231A46E4
:105680001B1A8A4103DB00200146BDE8F08DC1F3FF
:105690000A52C1F3130141F480154FF0000BD107FA
:1056A00002D100186D41521E0027044640F2FF113E
:1056B000384601EB620A3E468046024600204FF41F
:1056C0008011FFF70EFFC2197141BB1846EB0100B4
:1056D000B4EB030C75EB000C04D3E41A65EB000586
:1056E00017460E46241908F101006D418046342802
:1056F000E3DDF91946EB0600091BA84103D24FF080
:10570000FF32134601E0002213461BEB070046EB75
:105710000A51BDE8F04DFFF706BF70B58C1810F8C0
:10572000015B15F0070301D110F8013B2A1106D1E6
:1057300010F8012B03E010F8016B01F8016B5B1E00
:10574000F9D12B0705D40023521E0DD401F8013BDB
:10575000FAE710F8013BCB1A921C03E013F8015B47
:1057600001F8015B521EF9D5A142D8D3002070BDCB
:105770002DE9FC5F684989688808FFF77DFE82464D
:105780000022664BFFF797FD804642460B460020FD
:105790006349FFF702FE04460D465F49C868FFF7FC
:1057A0006BFE064622462B46FFF785FDCDE900013C
:1057B000FFF76FFE000C5B4908705749896888083D
:1057C000FFF75AFE0022554BCDE90001FFF773FDAC
:1057D000824652460B4600205149FFF7DEFD044643
:1057E0000D464D49C868FFF747FE064622462B4640
:1057F000FFF761FD8046FFF74CFE000A4A4908703A
:10580000454989688808FFF737FE80460022434BE8
:10581000FFF751FD02460B46CDE90001002040494B
:10582000FFF7BBFD04460D463B49C868FFF724FE61
:10583000064622462B46FFF73EFD8246FFF729FE2D
:105840003A490870344989688808FFF715FE82468E
:105850000022324BFFF72FFD804642460B460020C8
:105860002F49FFF79AFD04460D462B490869FFF7BB
:1058700003FE064622462B46FFF71DFDCDE900013B
:10588000FFF707FE000C2A49087023498968880839
:10589000FFF7F2FD82460022204BFFF70CFD804609
:1058A00042460B4600201E49FFF777FD04460D4691
:1058B00019490869FFF7E0FD064622462B46FFF727
:1058C000FAFCCDE90001FFF7E4FD000A1949087070
:1058D000114989688808FFF7CFFD064600220F4B63
:1058E000FFF7E9FC804642460B4600200C49FFF7D3
:1058F00054FD04460D4608490869FFF7BDFD824680
:1059000022462B46FFF7D7FCCDE90001FFF7C1FD8A
:1059100009490870BDE8FC9FE80200200000F03F44
:105920000000A041E0000020E1000020E200002093
:10593000E3000020E4000020E500002010B504464C
:10594000204600F0CFF910BD38B56946962003F027
:1059500023FCBDF800004FF6FF7101EA0024694600
:10596000972003F019FCBDF80000204484B204F431
:10597000004018B1E043401C404200E0204605B220
:10598000284638BD38B56946942003F005FCBDF8BB
:1059900000004FF6FF7101EA00246946952003F0EC
:1059A000FBFBBDF80000204484B204F4004018B1B1
:1059B000E043401C404200E0204605B2284638BD86
:1059C00038B569468F2003F0E7FBBDF8000000F012
:1059D000040008B103240EE0BDF8000000F002004E
:1059E00008B1022407E0BDF8000000F0010008B192
:1059F000012400E00024204638BD38B500F0A6F8A8
:105A000000F05AF800F016F96946922003F0C4FB42
:105A1000BDF800004FF6FF7101EA002469469320AB
:105A200003F0BAFBBDF80000204484B2204638BD24
:105A300010B503F08DFB00F00DF9FFF799FE10BDD6
:105A400001200B4908704870487188700871094836
:105A500088600120C8610020C8704CF25030C860D6
:105A600041F2883008616420486188617047000015
:105A7000E80200200024F40010B50648C078A022F7
:105A800042EA4000034A527940EA0201802003F0D2
:105A9000E9FB10BDE802002010B50648C07840229E
:105AA00042EA4000034A527940EA0201802003F0B2
:105AB000D9FB10BDE802002010B50548007910217F
:105AC00041EAC0042146812003F0CCFB10BD000058
:105AD000E802002010B51C484069B0F5007F0CD2E8
:105AE0001948808AC0F300218A2003F0BBFB1648C6
:105AF000017D8B2003F0B6FB25E013484069B0F52B
:105B0000007F13D31048406940F2FE3188420DD81F
:105B10000D4840694408C4F30021891C8A2003F021
:105B2000A1FBE1B28B2003F09DFB0CE0064840692D
:105B30008408C4F30021891D8A2003F093FBE1B29D
:105B40008B2003F08FFB10BDE802002010B5064843
:105B5000C078B02242EA4000034A527940EA02018A
:105B6000802003F07FFB10BDE802002010B506483E
:105B7000C078102242EA4000034A527940EA02010A
:105B8000802003F06FFB10BDE802002010B506482E
:105B9000C078202242EA4000034A527940EA0201DA
:105BA000802003F05FFB10BDE802002010B51A480A
:105BB0000178822003F056FB18480178832003F017
:105BC00051FB17480178842003F04CFB1548008BEB
:105BD000C0F30721882003F045FB1248017E89208D
:105BE00003F040FB10480178852003F03BFB0F4891
:105BF0000178862003F036FB0D480178872003F0FA
:105C000031FBFFF7A3FFFFF757FFFFF763FFFFF736
:105C1000ADFFFFF7BBFF10BDE0000020E10000205A
:105C2000E2000020E8020020E3000020E400002061
:105C3000E500002010B50648C078902242EA4000F6
:105C4000034A527940EA0201802003F00BFB10BDA9
:105C5000E802002008B50121042001F00BFB202000
:105C6000ADF8000010208DF8030003208DF802002D
:105C700069461B4800F0FDFC8020ADF800001020B4
:105C80008DF8030003208DF802006946144800F0E7
:105C9000F0FC4FF40060ADF8000010208DF8030018
:105CA00003208DF8020069460D4800F0E2FC4FF435
:105CB0008050ADF8000010208DF8030003208DF80F
:105CC00002006946064800F0D4FC4FF480510448B5
:105CD00000F0ABFD4FF48051014800F0A8FD08BD75
:105CE0000008014070B5044625464FF4006116488F
:105CF00000F09DFD4FF40061134800F096FD08266A
:105D00001AE02021104800F092FD05F08000802864
:105D100004D180210C4800F08AFD03E080210A486C
:105D200000F083FD2021084800F07FFD4FF6FF7052
:105D300000EA4505701E86B2002EE2DC4FF40061D9
:105D4000014800F074FD70BD0008014070B50246C6
:105D50000C46FF25FF2309E012F8010B80EA03013E
:105D60000648405C80EA05030548455C2000A4F134
:105D70000106F4B2F0D143EA052070BDC4950008D5
:105D8000C496000810B5012004490860322002F0D2
:105D9000BFFC00200249C1F8AC0110BDAC8121421A
:105DA0000080214200BFFEE710B500F001F810BDF1
:105DB00010B5002401F0EEFA1AE04FF6FF7101EA87
:105DC0000430002101F006FC002004EB44010B4AE2
:105DD00002EBC101487304EB440102EBC1014875B9
:105DE000204601F01FFC012002F092FC601CC4B2AE
:105DF000062CE2DB02F0B0FB10BD00001E0200200A
:105E000070B505460C46E079A17940EA01201049B9
:105E100008800846008801F082FD30B101280AD0D0
:105E200002280ED0032810D10EE021460848008831
:105E300000F032FB0AE021460548008800F062FECF
:105E400004E000F0F5FA01E000E000BF00BF70BD23
:105E50008C00002010B502F055FB02F09BF8FFF714
:105E6000A7FF10BD70B504460D46012004EB4401A8
:105E7000274A02EBC101487504EB440102EBC10162
:105E80004873002004EB440102EBC101C87304EB2A
:105E90004400114601EBC000047304EB440132F8E6
:105EA000310001F001F8284601F04EF8E87AA97AAD
:105EB00040EA0120174908800846008808B90120F7
:105EC00008801448008842F2107191FBF0F004EB56
:105ED00044010F4A02EBC101488004EB4400114623
:105EE00001EBC000408800EB800004EB440102EBB2
:105EF000C10188802946204601F0C6F804EB440120
:105F0000034A02EBC101087B00F06CFA70BD00008F
:105F10001E0200208A00002070B504460D46164679
:105F200032462946204603F047FA70BD10B50121DC
:105F3000082001F09FF94FF4A05005490880102077
:105F4000C87003208870034800F093FB10BD000068
:105F5000FC000020000C014010B50F214FF4104050
:105F600001F038FB01F016FA00200C4908700DE032
:105F70000A4909784FF6FF7202EA0130002101F068
:105F800029FB06480078401C044908700348007843
:105F90000628EDDB02F0E0FA10BD0000240100202D
:105FA00010B54FF4003000F0D1F840B14FF400309C
:105FB00000F008F84FF48051014800F038FC10BDA3
:105FC000000C014000F0805111B10349086001E06C
:105FD000024948607047000004040240000002408B
:105FE00021B1026842F00102026004E002684FF64B
:105FF000FE731A400260704701684FF6FE7211404E
:1060000001600021016041608160C1604B498842AC
:1060100008D14A490839496841F00F01474A083A0E
:1060200051608AE045491431884208D14349083912
:10603000496841F0F001414A083A51607DE03F492A
:106040002831884208D13D490839496841F47061D6
:106050003A4A083A516070E038493C31884208D1E8
:1060600036490839496841F47041344A083A516068
:1060700063E032495031884208D1304908394968D3
:1060800041F470212D4A083A516056E02B496431A1
:10609000884208D129490839496841F47001274AE2
:1060A000083A516049E025497831884208D12349AE
:1060B0000839496841F07061204A083A51603CE073
:1060C0001F49884206D1011F096841F00F01021FD4
:1060D000116032E01A491431884208D11849091F69
:1060E000096841F0F001164A121F116025E01449B9
:1060F0002831884208D11249091F096841F47061AA
:106100000F4A121F116018E00D493C31884208D136
:106110000B49091F096841F47041094A121F1160B7
:106120000BE007495031884207D10549091F09682A
:1061300041F47021024A121F1160704708000240AA
:10614000080402400146486880B2704701460020BA
:10615000002201F0805313B1054B1A6801E0054B92
:106160001A6802EA01030BB1012000E00020704729
:10617000000402400000024010B50022026847F609
:10618000F0739A430C6A8B6823430C6923434C6970
:1061900023438C692343CC6923434C6A23438C6A91
:1061A00023431A430260CB6843600B6883604B68EB
:1061B000C36010BD10B50121084601F02BF814484A
:1061C000FFF71AFF1348144908601448486000207C
:1061D0008860C820C86000200861802048610020D5
:1061E0008861C861202008624FF440504862002056
:1061F00088620748FFF7C0FF012240210548001FC1
:1062000001F0C5FF01210248FFF7EAFE10BD0000C2
:106210006C000240044400408C0300205601002022
:1062200010B50446204600F06BFE08B1002010BDFA
:106230000021A288A01D8154A088401CC82190FB89
:10624000F1F201FB1200A0802088401E00B22080E5
:106250000120ECE77047000010B56FF0040001F07A
:106260001FFC0A4800680A49B0FBF1F009490870B0
:106270000846007800EB4001C1EBC0104FF6FF71FB
:1062800001EAC0000449088010BD0000940000200D
:1062900000127A00260100202801002070B5044673
:1062A0000D46164604EB44002A4901EBC000C07CB1
:1062B000022818DA04EB440001EBC000807C60B9CE
:1062C000012004EB4401234A02EBC1018874002041
:1062D00004EB440102EBC101088132462946204605
:1062E00003F06AF835E004EB44001A4901EBC00002
:1062F000807C58B1002004EB4401164A02EBC10136
:10630000887404EB440102EBC1010881B5F57A7F82
:1063100006DD324641F27E31204603F04DF809E0B9
:1063200004EB44000B4A02EBC00081883246204651
:1063300003F042F804EB4400064901EBC000C07CC6
:10634000022806DD002004EB4401024A02EBC101F1
:10635000C87470BD1E02002070B504460D460120B1
:106360000749087007480078401C06490870204615
:10637000FFF756FF2946204600F002FE70BD0000E0
:10638000460000202600002070B504460D46204639
:1063900001F00AF80120034908702946204600F060
:1063A000EFFD70BD2900002070B504460D460A4877
:1063B00000F062FD50B100200849088008490860DB
:1063C00029462046FFF7E0FF012070BD2946204600
:1063D000FFF7C2FF0020F8E73C0100203800002052
:1063E0001000002000EB4001104A02EBC101C988F7
:1063F000B1F57A7F07DD4FF47A7100EB40020B4B69
:1064000003EBC202D18000EB4001084A02EBC1015C
:10641000498841F28832914206DD114600EB400284
:10642000024B03EBC2025180704700001E020020A5
:1064300010B500F0FFF8154800F092F8012113485C
:1064400000F0D8F8124800684FF6FF7202EA1041D7
:106450000E48801C00F0CEF80D48008881B20B4831
:10646000001D00F0C7F800F0BBF8FFF7F3FC4FF099
:1064700000604468074804604FF000610868FEF758
:1064800048FE04480068804710BD0000004800082E
:10649000F80000202000002070B504460D46287A40
:1064A000401E26490870B4F5827F24D10020097867
:1064B00001EB4101224A02EBC101487301201F494F
:1064C000097801EB410102EBC101C87300201B49AF
:1064D000097801EB410102EBC101488117490978B4
:1064E00001EB410102EBC10148751448007801F04D
:1064F00099F8002070BD1148007800F0DFFF28787F
:106500000F2818D10D480078062814DA0B480078B7
:1065100000EB40000A4921F8304000200749097883
:1065200001EB4101064A02EBC101488129460348BB
:106530000078FFF797FC0120DCE700001C0000203A
:106540001E02002010B504460448007810B1204611
:1065500000F0F4FF204600F0F7FF10BD28000020F7
:1065600030B5044604254FF4302000F06FF805469E
:10657000042D17D10C48006940F002000A49086157
:1065800008464461006940F0400008614FF4302043
:1065900000F05CF805460448006941F6FD710840CA
:1065A00001490861284630BD0020024004200B4903
:1065B000C96801F0010109B101200EE00749C9686D
:1065C00001F0040109B1022007E00449C96801F0A3
:1065D000100109B1032000E00420704700200240B0
:1065E0000348006940F080000149086170470000DD
:1065F0000020024070B504460D460426F00200F06B
:1066000025F80646042E11D10948006940F0010022
:10661000074908612580F00200F018F80646044892
:10662000006941F6FE71084001490861304670BDBD
:106630000020024002480349486003484860704710
:106640002301674500200240AB89EFCD00B502462B
:106650000423FFF7ABFF034603E0FFF7A7FF034662
:10666000521E012B01D1002AF7D102B90523184689
:1066700000BD2DE9F0410246002500260020002340
:106680000024002791F803C00CF00F0591F803C017
:106690000CF0100CBCF1000F03D091F802C04CEAD2
:1066A000050591F800C0BCF1000F31D0146800203E
:1066B0002BE04FF0010C0CFA00F3B1F800C00CEA2B
:1066C00003069E4220D183004FF00F0C0CFA03F713
:1066D000BC4305FA03FC4CEA040491F803C0BCF186
:1066E000280F06D14FF0010C0CFA00FCC2F814C0C0
:1066F0000AE091F803C0BCF1480F05D14FF0010C3E
:106700000CFA00FCC2F810C0401C0828D1D3146059
:10671000B1F800C0BCF1FF0F34DD546800202EE05A
:1067200000F1080C4FF0010808FA0CF3B1F800C0B2
:106730000CEA03069E4221D183004FF00F0C0CFAA5
:1067400003F7BC4305FA03FC4CEA040491F803C0C8
:10675000BCF1280F05D100F1080C08FA0CF8C2F8BA
:10676000148091F803C0BCF1480F07D100F1080C68
:106770004FF0010808FA0CF8C2F81080401C0828F5
:10678000CED35460BDE8F081F0B50A460023002462
:106790000021002500F00046B6F1004F02D11D4E49
:1067A000F16901E01B4E7168C0F3034583B200F448
:1067B0004016B6F5401F08D121F07061154E76687D
:1067C00026F07066134F7E6012E000F48016B6F576
:1067D000801F06D1032606FA05F4A14341F070613B
:1067E00006E0460D360103FA06F6B14341F070614A
:1067F00022B1460D360103FA06F6314300F0004699
:10680000B6F1004F02D1034EF16101E0014E71601B
:10681000F0BD0000000001400246002093680B40DC
:106820000BB1012000E00020704741617047016119
:106830007047F0B503469C8800250CE0981D005D6C
:106840001070601CC82690FBF6F706FB170084B298
:10685000521C681C85B28D42F0DB0120F0BD0000A7
:1068600010B50449044801F099FE10B10348FFF740
:1068700069FE10BD2B000020500100203C010020CB
:1068800000BFFEE710B540211048FFF7CEFF0F48CC
:10689000006820F070400D4908600846006840F02C
:1068A0008050086080210948FFF7BFFF022000F0F8
:1068B00023F940210548FFF7BAFF022000F01CF938
:1068C00040210248FFF7B1FF10BD0000000C01405D
:1068D00010B540211048FFF7A8FF0F48006820F0CE
:1068E00070400D4908600846006840F0805008601C
:1068F00080210948FFF79BFF022000F0FDF84021AE
:106900000548FFF794FF022000F0F6F84021024806
:10691000FFF78BFF10BD0000000C014070B505466D
:1069200000241848006820F07040164908600846A6
:10693000006840F080400860002618E040211148BF
:10694000FFF773FF022000F0D7F840210D48FFF752
:106950006EFF6006040E80210A48FFF75DFF08B154
:10696000601CC4B2012000F0C7F8701CC6B2082E2B
:10697000E4DB15B9FFF7ACFF01E0FFF783FF20462A
:1069800070BD0000000C014070B504461A48006854
:1069900020F07040184908600846006840F08050B8
:1069A000086040211448FFF740FF002520E004F074
:1069B000800020B180211048FFF739FF03E08021DB
:1069C0000D48FFF732FF6006040E022000F094F835
:1069D00040210948FFF72BFF022000F08DF84021ED
:1069E0000548FFF722FF022000F086F8681CC5B2B8
:1069F000082DDCDB70BD0000000C014010B5114813
:106A0000006820F070400F4908600846006840F0B8
:106A10008050086080210B48FFF709FF402109489A
:106A2000FFF705FF042000F067F880210548FFF715
:106A3000FCFE042000F060F840210248FFF7F5FE5C
:106A400010BD0000000C014010B51148006820F096
:106A500070400F4908600846006840F080500860A8
:106A600040210B48FFF7E1FE80210948FFF7DDFEDA
:106A7000042000F041F840210548FFF7D8FE8021AE
:106A80000348FFF7D4FE042000F036F810BD0000E4
:106A9000000C014010B500241648006820F070403A
:106AA000144908600846006840F080400860802172
:106AB0001048FFF7BCFE012000F01EF840210D48F1
:106AC000FFF7B5FE012000F017F807E0601CC4B224
:106AD000FA2C03DDFFF7B8FF012010BD8021054827
:106AE000FFF79AFE0028F1D140210248FFF79DFEF2
:106AF0000020F2E7000C0140014600E0491E002999
:106B0000FCD170472DE9F04180460C46B8F5047F72
:106B100077D009DCA8F20120082873D2DFE800F062
:106B20001D2F334F5C748E9D40F21521A8EB0100A0
:106B3000884568D00ADCA8F21120002879D0012805
:106B400078D0022877D003285CD101E1012873D0E6
:106B50000C2872D00D28F7D111E1E07A022805D176
:106B60000120924908719248886007E0E07A012884
:106B700004D100208D4908718E48886013E1E07AC5
:106B80008A4908700FE1E07A012803D10020874983
:106B9000C87013E0E07A022803D103208349C8704B
:106BA0000CE0E07A032803D102208049C87005E098
:106BB000E07A042802D101207C49C870F3E0E07A31
:106BC000012802D17949487105E0E07A052802D10F
:106BD000002076494871E6E0207A0106607A01EBF0
:106BE0000041A07A01EB0020E17A08446F49C860B7
:106BF0000846C0687049884202D908466B49C86097
:106C0000D1E03AE0CEE0A4E0207A0106607A01EB20
:106C10000041A07A01EB0020E17A08446349086151
:106C2000084600696449884202D908465F490861FC
:106C3000B9E07EE086E07FE08CE08CE0E17AA07A4B
:106C400001EB00205949886108468069B0F5007F52
:106C500002D340F2FF108861A5E0E17AA07A01EB4F
:106C60000020524948610846406940F2FC71884260
:106C700002D908464D49486195E04FF480714F486C
:106C8000FFF7D3FD00F08BFD207A062843D2DFE822
:106C900000F04203101D29350022494B10464FF0E9
:106CA000804101F065FD0646FEF7F3FB3F490870A1
:106CB00032E000224FF080431046194601F058FDA3
:106CC0000646FEF7E6FB3949087025E000223D4BF9
:106CD0001046D90201F04CFD0646FEF7DAFB3349B7
:106CE000087019E00022384B1046190301F040FDEE
:106CF0000646FEF7CEFB2D4908700DE00022334B0F
:106D000010464FF0804101F033FD0646FEF7C1FB0F
:106D10002649087000E000BF00BFFEF789FE01F0C1
:106D2000D5F800F037FD4FF480712448FFF77FFD60
:106D300039E000F02FFD36E000201C49887101F099
:106D4000C5F830E001201949887101F0BFF82AE048
:106D500029E028E027E04FF400711848FFF765FDAF
:106D60001248016A1A4801F0A1F90E21184800F0F2
:106D7000EFFD4FF400711148FFF759FD13E0FEF7E6
:106D80003CFE85B269B212488175281241B21048A2
:106D9000C17529140176291641760E210E3000F0B6
:106DA000D7FD00E000BF00BFBDE8F081E802002091
:106DB0000024F40040FBFF0000E1F505000C014059
:106DC0000000F03F000008400000144000001840A0
:106DD000C400002070B504460D46164604EB44007E
:106DE000244901EBC000C07C032818DA04EB4400FE
:106DF00001EBC000407C60B9012004EB44011D4A56
:106E000002EBC1014874002004EB440102EBC10114
:106E1000088132462946204602F0CEFA19E004EBFA
:106E20004400144901EBC000407C90B1002004EB09
:106E30004401104A02EBC101487404EB440102EB27
:106E4000C10108814FF6FF7101EA0430002100F012
:106E5000C1FB04EB4400074901EBC000C07C0328E0
:106E600006DD002004EB4401024A02EBC101C874B4
:106E700070BD00001E02002070B504460026257873
:106E8000A81EC1B22046FEF761FF0646601910F841
:106E9000010C611911F8021C40EA0120B04201D135
:106EA000012070BD0020FCE71349097801EB410186
:106EB000124A32F83110B1F5817F09D00E490978B4
:106EC00001EB410132F8311040F20312914209D135
:106ED0000121094A127802EB4202084B03EBC2027D
:106EE000117508E00021044A127802EB4202034BBC
:106EF00003EBC202117570471C0000201E02002027
:106F00000146B1F90000002801DC01207047002093
:106F1000FCE701468A88881D805C0E2811DB8A8880
:106F2000881D805C14280CDC8A88881D805CB1F97F
:106F30000020904205DCB1F900000E2801DB0120A1
:106F400070470020FCE70000417A012909D10221A5
:106F5000094A127802EB4202084B03EBC202917518
:106F600008E00421044A127802EB4202034B03EBCF
:106F7000C2029175704700001C0000201E02002014
:106F800002881AB900220A70828842807047000085
:106F900070B504460D4620881349098888420ADAEC
:106FA00029461248FFF741FC11480078D0B1012072
:106FB0001049086016E020880B49098888420FDBD9
:106FC00020880D49098888420ADA29460748FFF7D0
:106FD0002EFC0748007828B100200649086001E02F
:106FE0000020208070BD000032000020000C014015
:106FF00028000020AC8121423400002000BFFEE7C1
:107000007047000070B5002100230F22C47804B33C
:10701000154C246804F4E064C4F5E064210AC1F16D
:107020000403CA40447804FA03F1847814402143ED
:1070300009010E4C0678A155047804F01F050124BF
:10704000AC4005786D11AD0005F1E025C5F80041B3
:1070500009E0047804F01F050124AC40044D0678D3
:10706000761145F8264070BD0CED00E000E400E02C
:1070700080E100E0024A0A400243024B1A60704776
:1070800080FFFF1F08ED00E02DE9F04F8BB0824636
:107090008B469BF80C00554908700846007838B9B3
:1070A00000200AEB4A01524A02EBC101C88099E074
:1070B0004E480078642815D10AEB4A014C4A02EB8D
:1070C000C101897D40F27A3201FB02F0C11700EB69
:1070D0009171C1F38F010AEB4A02454B03EBC202E7
:1070E000D1807FE0414800780A283EDC0AEB4A0163
:1070F0003F4A02EBC101887DFEF7BEF9CDE90401EC
:107100003A480078FEF7B8F906460F460AEB4A01FE
:10711000374A02EBC101887DFEF7AEF98046354A59
:10712000354BFEF7C8F832463B46CDE90001FEF785
:10713000C2F80022314BCDE90201FEF715F80446F2
:10714000DDE90423FEF7B7F800222D4BCDE9060157
:10715000FEF723F9CDE90801FEF79BF90AEB4A0196
:10716000234A02EBC101C8803CE00AEB4A01204AF5
:1071700002EBC101887DFEF77FF9CDE906011B48CE
:107180000078FEF779F9CDE900010AEB4A01184AC7
:1071900002EBC101887DFEF76FF90446194A1A4BCC
:1071A000FEF789F80646DDE90023FEF784F80022A1
:1071B000164BCDE90201FDF7D7FFCDE90401DDE96A
:1071C0000623FEF778F8804600220D4BFEF7E5F81F
:1071D000CDE90801FEF75DF90AEB4A01044A02EB2A
:1071E000C101C8800BB0BDE8F08F0000880000200E
:1071F0001E0200209A99999999991B4000005940C4
:1072000000001040E17A14AE47E1F63F00E0734021
:107210007047000029B1064A52690243044B5A6183
:1072200004E0034A52698243014B5A6170470000EF
:107230000010024029B1064AD2690243044BDA61C8
:1072400004E0034AD2698243014BDA6170470000CF
:107250000010024029B1064A12690243044B1A6128
:1072600004E0034A12698243014B1A61704700002F
:107270000010024029B1064A92690243044B9A6108
:1072800004E0034A92698243014B9A61704700000F
:107290000010024029B1064AD2680243044BDA606A
:1072A00004E0034AD2688243014BDA607047000071
:1072B0000010024030B500210022002400232D4D93
:1072C0006D6805F00C0121B1042905D0082923D1EE
:1072D00005E0294D056022E0274D05601FE0254DA2
:1072E0006D6805F47012234D6D6805F48034022535
:1072F00005EB92421CB9214D554305600BE01D4D35
:107300006D6805F400351DB11C4D5543056002E064
:10731000194D5543056002E0174D056000BF00BFE1
:10732000144D6D6805F0F0010909154D6B5C056899
:10733000DD4045600F4D6D6805F4E061090A104DB0
:107340006B5C4568DD4085600A4D6D6805F46051F1
:10735000C90A0B4D6B5C4568DD40C560054D6D6825
:1073600005F44041890B074D6B5CC568B5FBF3F52F
:10737000056130BD0010024000127A0000093D0096
:10738000A8000020B80000200149C8717047000023
:107390000010024010B54FF480610248FFF747FA31
:1073A00010BD0000000C014010B50446A188A01DCE
:1073B000405C0749087002E02046FEF731FF0448B0
:1073C00001780078401E024A10700029F4D110BDE7
:1073D0008E00002070B502460C46002300250021D7
:1073E00009E02248465CA01D405C864201D1681C31
:1073F000C5B2481CC1B2A2F108008842F1DCA84223
:1074000005D11B480078401C194E307002E0002066
:10741000174E307015480078022806D1134840787E
:10742000212802D10020124E307010480078032825
:1074300006D10E484078012802D100200C4E307051
:107440000B480078002802DD01200A4E307000232E
:1074500005E0A01DC05C054EF054581CC3B2A2F15B
:1074600008009842F5DC0248007870BD2C0000202E
:10747000250000204200002010B50B48007890B194
:107480000A48007878B1002009490880032001F0FB
:1074900057FF0848007800F073FA01200649087089
:1074A00000200249087010BD290000202A00002099
:1074B000380000202400002028000020002100EBDC
:1074C00040020A4B03EBC202118100EB400203EBC6
:1074D000C202517400EB400203EBC202917400EB54
:1074E000400203EBC202D174704700001E0200206C
:1074F00010B50446E079A17940EA01200A490880E4
:1075000000200A490870012009490870002001F094
:1075100017FF002007490860012001F0F9F8012059
:107520000549C1F8A40110BD9000002028000020EA
:1075300029000020AC8121420080214210B5044680
:107540002046FFF7D5FF10BD10B504462078214630
:10755000FFF740FF18B920782146FEF751FC21784B
:10756000204600F0F5F910BD21B1028842F040023A
:10757000028004E002884FF6BF731A400280704711
:107580000246002013890B400BB1012000E00020CF
:1075900070478181704710B50022028802F4415281
:1075A0000B884C8823438C882343CC8823430C8945
:1075B00023434C8923438C892343CC8923431A4397
:1075C0000280838B4FF2FF74234083830B8A0382F4
:1075D00010BD000070B504460D46B4F5004F02D052
:1075E000B4F5104F01D1254302E044EA850085B28D
:1075F00000BF02210948FFF7C3FF0028F9D04FF46C
:1076000080510748FFF711F929460448FFF7C1FFE9
:107610004FF480510248FFF70AF970BD003800406E
:10762000000C0140062820D2DFE800F003070B1011
:10763000151A01210E4A116018E001210D4A11604E
:1076400014E001210B4A2C3A11600FE00121094A94
:10765000243A11600AE00121054A0C3A116005E064
:107660000121034A083A116000E000BF00BF7047E3
:107670008C812142BC012142062820D2DFE800F0A3
:1076800003070B10151A00210E4A116018E00021A3
:107690000D4A116014E000210B4A2C3A11600FE0F2
:1076A0000021094A243A11600AE00021054A0C3AF7
:1076B000116005E00021034A083A116000E000BFB4
:1076C00000BF70478C812142BC01214210B50121CD
:1076D0000820FFF7CFFD4FF4006007490880102015
:1076E000C870032088700548FEF7C3FF4FF400619F
:1076F0000248FFF79AF810BDFC000020000C014082
:1077000010B501210820FFF7B5FD0B2010490880B6
:107710001020C870032088700E48FEF7AAFF0B21C6
:107720000C48FFF784F801210420FFF7A3FD48F27D
:107730005000074908801020C87003208870064850
:10774000FEF797FF48F250010348FFF770F810BDAD
:10775000FC000020000C01400008014010B5044668
:10776000204600F06BFD204600F080FE21460248D6
:10777000006800F091FE10BDF800002010B5FEF783
:107780006BFD10BD10B500F02BF8FFF7B9FFFFF748
:107790009DFF10BD10B50020FFF7F6FD10BD10B520
:1077A0000720FFF7F1FD10BD08B54FF48070ADF86C
:1077B000000003208DF8020018208DF803006946B0
:1077C0000348FEF756FFFFF7E5FFFFF7E8FF08BDA8
:1077D0000008014010B500F055F800F06DF810BD3C
:1077E00010B501210920FFF745FD01210948FEF7E9
:1077F000CBFF4FF44C70084908801020C87003205C
:1078000088700648FEF735FF4FF44C710348FFF7C8
:107810000EF810BD00023000FC000020000C0140FA
:1078200010B50120FFF79AFFFFF7ACFF00F01AF840
:10783000FFF7A4FFFFF7CEFF00F01EF8FEF700F9F8
:107840004FF47A7000F064FFFFF7AEFF10BD70B523
:1078500004460D46E0B200F0A3FAE0B2294600F07B
:10786000BDFA70BD10B564210020FFF7F0FF642160
:107870000120FFF7ECFF10BD10B5FEF757FBFEF738
:107880006BFB10BD10B501218803FFF7D3FC01216C
:107890000820FFF7EFFC4FF420400549088018202E
:1078A000C870032088700348FEF7E3FE10BD000097
:1078B000FC000020000C014000B585B000211648F6
:1078C000FFF752FE4FF44040ADF800004FF48270D5
:1078D000ADF802004FF40060ADF804000220ADF8EE
:1078E00006000020ADF808004FF40070ADF80A0063
:1078F0000820ADF80C000020ADF80E000720ADF810
:10790000100069460448FFF746FE01210248FFF7D0
:107910002BFE05B000BD0000003800407047014656
:10792000012904DBB1F5827F01DC00207047B1F54D
:10793000007F05DD40F22320814201DA0120F5E7D6
:10794000B1F5837F01D10220F0E70320EEE70000CC
:1079500070B504460D460BE014F8011B074800F013
:10796000CDFD00BF8021054800F0B8FC0028F9D00B
:107970002800A5F10101CDB2EED170BD0044004058
:1079800070B50546002412E0C5EBC500094A02EBBC
:107990004000005781B2084800F0B0FD00BF8021D0
:1079A000054800F09BFC0028F9D0601CC4B20E2CE6
:1079B000EADB70BD500000200044004010B500F02C
:1079C00001F810BD0CB5002001900090324800680D
:1079D00040F480303049086000BF2F48006800F450
:1079E000003000900198401C0190009818B901984F
:1079F000B0F5A06FF1D12848006800F4003010B154
:107A00000120009001E0002000900098012841D161
:107A10002248006840F010002049086008460068CD
:107A200020F0030008600846006840F0020008608B
:107A30001948406818494860084640684860084648
:107A4000406848600846406820F47C10486008465A
:107A5000406840F4102048600846006840F080709C
:107A6000086000BF0C48006800F000700028F9D0E2
:107A70000948406820F0030007494860084640680C
:107A800040F00200486000BF0348406800F00C006E
:107A90000828F9D10CBD000000100240002002406F
:107AA000042808D14FF0E021096941F004014FF0AA
:107AB000E022116107E04FF0E021096921F00401A3
:107AC0004FF0E022116170477047000010B5144874
:107AD000006840F0010012490860084640681149FA
:107AE00008400F494860084600680F4908400C49A3
:107AF00008600846006820F4802008600846406856
:107B000020F4FE0048604FF41F008860FFF756FF26
:107B10004FF4A0414FF00060FFF7ACFA10BD000039
:107B2000001002400000FFF8FFFFF6FE10B5012133
:107B3000880700F01AF900285ED00121880700F0BC
:107B400005F92E480068401C2C490860084600686A
:107B50004CF25031884227D9002028490860284932
:107B600008701DE02648007800EB4000254901EB35
:107B7000C000007D78B12248007800EB400001EBA6
:107B8000C000C07C401C1E49097801EB41011D4A20
:107B900002EBC101C8741A480078401C18490870EB
:107BA000174800780628DDDB0020154908701DE025
:107BB0001348007800EB4000124901EBC000407B05
:107BC00078B10F48007800EB400001EBC00000895D
:107BD000401C0B49097801EB41010A4A02EBC10143
:107BE000088107480078401C05490870044800785F
:107BF0000628DDDB00F0BCFC10BD00000C000020FE
:107C0000080000201E02002010B50121344800F0B9
:107C1000ACF8002863D00121314800F097F83148D2
:107C20000068401C2F490860084600684CF250313B
:107C3000884213D900202B4908602B480088401C3B
:107C40002949088008460088032807DD00200880AD
:107C50002648007810B10120254908702548007891
:107C600080B124484088401C22494880084640880A
:107C700041F28831884205DD01201E49487000200C
:107C8000488008701C48007880B11B484088401C20
:107C9000194948800846408841F28831884205DD0C
:107CA000012015494870002048800870134800786A
:107CB00070B112488088401C10498880084680882E
:107CC000B0F57A7F04DD01204870002088800870BC
:107CD0000B480088401C0A490880FFF7CDFB10BD07
:107CE000000400401000002038000020290000207F
:107CF0002A00002042000020460000204A00002008
:107D00003A00002010B501210D4800F02EF8A8B16E
:107D100001210B4800F01AF80A490868411C094A79
:107D20001160B0F5FA7F09D90021054800F011F87B
:107D300000200449086001200349087010BD0000BC
:107D400000080040140000202B000020CA430282DB
:107D5000704721B1028842F00102028004E00288EB
:107D60004FF6FE731A400280704730B5024600207D
:107D700000230024158A05EA0103958905EA010418
:107D800013B10CB1012000E0002030BD1AB183898D
:107D90000B43838102E083898B438381704700001A
:107DA00038B504460B4931F814000121FFF742FAB7
:107DB000094810F814008DF8000001208DF801002A
:107DC00002208DF8020001208DF803006846FFF7BD
:107DD00019F938BDE8970008EE9700083EB504464B
:107DE0000D464FF6FF7000EA4515ADF8045000202F
:107DF000ADF80000ADF80600ADF80200094951F8F1
:107E00002400694600F010F8064951F824000122C8
:107E10001146FFF7BBFF034951F824000121FFF78A
:107E200098FF3EBD18010020002202881D4B984299
:107E30000ED01D4B98420BD0B0F1804F08D01B4B99
:107E4000984205D01A4B984202D01A4B984204D15E
:107E50004FF68F731A404B881A43174B984207D03E
:107E6000164B984204D04FF6FF431A40CB881A4372
:107E700002808B8883850B8803850A4B98420BD040
:107E8000094B984208D00E4B984205D00D4B9842B2
:107E900002D00D4B984201D10B7A038601238382D5
:107EA00070470000002C01400034014000040040F5
:107EB00000080040000C004000100040001400408A
:107EC0000040014000440140004801402DE9F043DA
:107ED0008BB000260024002700BF142106A8FDF760
:107EE00038F9142101A8FDF734F9A046A146012074
:107EF0002649087026490878FDF720FDFDF756FE53
:107F000000BF002520E0FDF75BFD87B2022F10D1F6
:107F10000126FDF719FD8046FDF734FD814606A8D0
:107F200020F8149001A820F81480601CC4B2FDF75A
:107F3000B3FD1648407828B10020144948700BB0B2
:107F4000BDE8F083681CC5B20A2DDCDB012ED8D158
:107F5000214601A800F068F8214606A800F064F860
:107F6000214601A800F038F809494884214606A8AE
:107F700000F032F8064908840024FDF77DFD00205A
:107F800002494870087088800120D8E74A00002024
:107F9000E802002010B5002201218807FFF7F6FE55
:107FA00000214FF08040FFF7D4FE00220121084855
:107FB000FFF7ECFE00210648FFF7CBFE002201216F
:107FC0000448FFF7E3FE00210248FFF7C2FE10BDA0
:107FD0000004004000080040F0B5024600200024E4
:107FE000022915DD0F4D2B7804E032F913502C4493
:107FF0005D1CEBB20B4D2D784D1B9D42F5DC94FBC7
:10800000F1F5084E3678022707FB165528B207E02F
:10801000B2F90050B2F90260354495FBF1F528B28F
:10802000F0BD0000EA00002000221D4B1A7032E073
:108030001B4A1278521C1B4B1A7023E0184A127804
:1080400030F91220174B1B7830F913309A4214DAAA
:10805000134A127830F81220134B1A80114A127802
:1080600030F812200E4B1B7820F813200E4AB2F97C
:1080700000200C4B1B7820F813200A4A1278521C5F
:10808000084B1A70074A12788A42D7DB044A1278E2
:10809000521C034B1A70024A12788A42C8DB70479E
:1080A000E6000020E7000020E800002073B5044649
:1080B000BDF80600000A2072BDF806006072BDF827
:1080C0000400000AA072BDF80400E0720C212046F2
:1080D000FDF73CFE05462812207365737CBD000049
:1080E00010B540F22441164800F005F930B340F2D3
:1080F0002441134800F030F8114800881048001D52
:1081000000881048FEF71EF80F4908800F48408885
:108110000F4909880844C8300B490988401AC8210A
:1081200090FBF1F201FB1200084948800548FEF778
:1081300009F80749088001200649087010BD0000B1
:10814000004400406C0002401A0000205001002052
:10815000180000202B00002010B50022002340F65C
:108160006A14A14200D100BF0A1201249440A3B2B4
:10817000DC43048010BD21B1828942F40052828127
:1081800004E082894DF6FF731A40828170471AB16C
:10819000838A0B43838202E0838A8B438382704706
:1081A00010B504462048844209D101218803FFF715
:1081B00071F800214FF48040FFF76CF832E01B4863
:1081C000844209D101214804FFF744F800214FF40B
:1081D0000030FFF73FF825E01548844209D101211E
:1081E0008804FFF737F800214FF48020FFF732F8BA
:1081F00018E01048844209D10121C804FFF72AF889
:1082000000214FF40020FFF725F80BE00A488442D4
:1082100008D101210805FFF71DF800214FF4801057
:10822000FFF718F810BD000000380140004400407E
:1082300000480040004C00400050004038B5044663
:108240001E4951F824101E4A52F82420114341F0CF
:1082500001000121FFF70EF834B91A4951F8240042
:108260000121FFF707F805E0164951F82400012124
:10827000FEF7E0FF1448FFF793FF18208DF8030086
:10828000124830F81400ADF8000003208DF8020009
:108290000F4951F824006946FEF7EBF904208DF8E8
:1082A00003000C4830F81400ADF800000A4951F8FA
:1082B00024006946FEF7DDF938BD0000CC970008C0
:1082C000D4970008C497000800440040DC970008D9
:1082D00008010020E097000810010020024600205D
:1082E000B1F5007F00D100BF13880B400BB1012016
:1082F00000E00020704770B50246002400230025EE
:10830000002040F66A16B14200D100BFC1F3421509
:1083100001F01F03012606FA03F3012D02D196890D
:10832000334006E0022D02D1168A334001E0968ADE
:1083300033400C12012606FA04F41688344013B1B7
:108340000CB1012000E0002070BDF0B50346002410
:1083500000260025002040F66A17B94200D100BF70
:108360001846C1F3421401F01F06012707FA06F56B
:10837000012C01D10C3004E0022C01D1103000E0BE
:1083800014301AB107682F43076002E00768AF4353
:108390000760F0BD2DE9F04786B005460E46002483
:1083A000A24600BFA1460027B08900B100BF2F46FA
:1083B0002C8A4CF6FF700440F08804432C82AC8970
:1083C0004EF6F3100440B0883189084371890843A0
:1083D0000443AC81AC8A4FF6FF400440B0890443AB
:1083E000AC8201A8FEF766FF1F48874202D1DDF884
:1083F00010A001E0DDF80CA0A88900F4004040B115
:108400000AEBCA0000EB0A1031684900B0FBF1F832
:1084100007E00AEBCA0000EB0A1031688900B0FBE4
:10842000F1F86420B8FBF0F004012009642101FB9D
:108430001089A88900F4004040B1322000EBC90047
:10844000B0FBF1F000F00700044308E0322000EB3D
:1084500009106421B0FBF1F000F00F0004432C81FF
:1084600006B0BDE8F08700000038014038B504468A
:10847000084810F814008DF8000000208DF8010065
:1084800001208DF802008DF803006846FEF7BAFD62
:1084900038BD0000E497000870B505460C46154845
:1084A0000560002013498880C880088188810C20DD
:1084B0004881FDF77FFE104951F824000D49FFF770
:1084C00069FF0D4951F82400012240F22441FFF7D1
:1084D0003CFF094951F824000121FFF74CFE00BF81
:1084E000054951F824004021FFF7F8FE0028F7D095
:1084F00070BD00004403002000010020C1F3080209
:108500008280704710B500211248FFF734FE002228
:1085100040F227710F48FFF718FF002240F2255163
:108520000C48FFF712FF002240F226610948FFF7CE
:108530000CFF40F227710748FFF70EFE40F226615C
:108540000448FFF709FE40F225510248FFF704FEF8
:1085500010BD00000038014010B54FF480610248A2
:10856000FEF763F910BD0000000C014000BFFEE7FC
:1085700010B50848007830B900F076FF2021064891
:10858000FEF706FD04E04FF400710348FEF700FD1E
:1085900010BD0000280000203A00002070B50446FD
:1085A0000D46287838B36088A188401AC830C821A1
:1085B00090FBF1F201FB120000B220802046FEF792
:1085C000A8FC88B114210D48FCF7C3FDA288A01DAA
:1085D000815C0A4A2046FEF72CF929462046FDF721
:1085E000E3FE40B1012070BD2046FDF719FE29468B
:1085F0002046FEF7C5FC0020F5E700003C01002006
:10860000490050EAC12018BF04204A0D18BF40F0AD
:10861000010040F2FF72B2EB515F08BF40F0020070
:10862000012808BF052070472DE9F0414F1E00EBDF
:10863000C7010446D1E9000115461E4637F006027F
:108640000DD02A463346FCF736FE7F1E04EBC703E7
:10865000D3E90023FCF788FD37F00602F1D1022FA1
:1086600025D0042F13D0062F18BFBDE8F0812A466D
:108670003346FCF720FED4E90A23FCF775FD2A46B1
:108680003346FCF718FED4E90823FCF76DFD2A46B3
:108690003346FCF710FED4E90623FCF765FD2A46B5
:1086A0003346FCF708FED4E90423FCF75DFD2A46B7
:1086B0003346FCF700FED4E90223FCF755FD2A46B9
:1086C0003346FCF7F8FDD4E90023BDE8F041FCF7A0
:1086D0004BBD0000024A00201107FCF77FBF0000DD
:1086E00001FDFFFF02E008C8121F08C1002AFAD1ED
:1086F00070477047002001E001C1121F002AFBD122
:1087000070470000014908607047000038010020F0
:108710000146114A12884A434FF0E0235A61002271
:108720009A611A46126942F001021A6100BF4FF0C5
:10873000E022106900F001021AB100F48032002A30
:10874000F5D04FF0E022126922F001024FF0E02351
:108750001A6100229A6170472801002000BFFFF7CC
:108760005FF8FDF70FFB00BFFEF77AF8FCE70000AB
:108770002DE9F04D16460F460546020094B01C4602
:1087800021F0004123F0004014BF4FF0010C4FF0E6
:10879000000C0CEB470CFE4B0CEB03084FEA630C90
:1087A000E0452DD35FEA060818BF4FF0010808EB3B
:1087B00044089844F74B984522D3F74B50EA060CEF
:1087C00002D09F4205D14AB914B000201946BDE835
:1087D000F08D002A08BF4FF0000C01D04FF0010CC3
:1087E0000CEB470313F5001F0AD8002E14BF4FF0FF
:1087F000010C4FF0000C0CEB440313F5001F08D9DB
:1088000014B03246234628463946BDE8F04DFCF701
:10881000ABBCDFF888B34FF0000A002FB8BF584553
:1088200023DADF4B9842A8BF4FF0020A1DDADA4B79
:1088300083421ADCDB4B03EB2053142B08DDC3F11E
:10884000340C26FA0CF303FA0CFCB4450DD108E005
:108850005EB9C3F1140C20FA0CF303FA0CFC844546
:1088600003D103F00103C3F1020A51EA020321D14B
:10887000002C1FDA002F18BFBAF1020F02D0BAF194
:10888000010F0BD00220FFF73DFF14B00022BDE81E
:10889000F04D13461046C049FCF77FBD0220FFF79C
:1088A00031FF14B02A463B46BDE8F04D0020BA49DE
:1088B000FCF773BD33006DD1584525D107F18040D9
:1088C00010F5801001BF002A0020B34914B008BF82
:1088D000BDE8F08DB048884207DC002CA1BF1846E7
:1088E000214614B0BDE8F08D07E0002CBFBF18464C
:1088F00084F0004114B0BDE8F08DAB497944D1E972
:10890000000114B0BDE8F08DDFF88CC2604526D1BF
:10891000002C1FDA19B1594513D1DAB90AE0002A3F
:1089200040F0DA829D4A394614B0002062F31E01FD
:10893000BDE8F08D0020394614B060F31E01BDE89B
:10894000F08D07DA14B03B46BDE8F04D00206146DB
:10895000FCF723BD14B010463946BDE8F08D5945EB
:1089600018DAB4F1804F0DD0A4F10053B3F1FF53E6
:1089700010D13B1E0EDB14B01046BDE8F04D194679
:1089800000F0B8BC3B4614B01046BDE8F04D1946A7
:10899000FCF791BC27F00043A2BBE1B1594538D1A7
:1089A000002F06DD002CA1BF0020594614B0BDE801
:1089B000F08D002F01DD002C1FDB002F16DA002CBC
:1089C00014DBBAF1010F4FF0000014BF734977496F
:1089D00014B0BDE8F08DBAF1020F18BF002F0CD013
:1089E000BAF1010F09D1002F07DA0CE0002FB8BF50
:1089F000002C0EDABAF1010F05D0002014B00146A8
:108A0000BDE8F08D05E014B000204FF00041BDE856
:108A1000F08D4FF0010C0CEBE7720D9252EA0A0256
:108A20000BD0634A90427DDD624B634A984216DD6B
:108A30008A420EDB002C1CDB2CE00120FFF762FEDB
:108A400014B00022BDE8F04D134610461146FCF765
:108A5000A4BC5148884202DC002C0ADC1AE0914296
:108A600002DA002C16DA04E04B4B99421EDD002C92
:108A700010DD0220FFF746FE40F2013200204FF0E9
:108A8000E041FCF7ABFD454A14B061F31E0211460C
:108A9000BDE8F08D0220FFF735FEFFF71BFE3E4AD2
:108AA00014B061F31E021146BDE8F08D0022284685
:108AB0003946FCF7FAFB054688466FF00102FCF7E1
:108AC0008DFD4FF055323D4BFCF7F2FB2A464346F5
:108AD000FCF7F1FB00223A4BFCF7EAFB07468B461A
:108AE0002A46434610461946FCF7E5FB3A465B46E4
:108AF000FCF7E1FB09910C904FF0C042314B284646
:108B00004146FCF7D8FB07468B462F4A2D4B099967
:108B10000C98FCF7D0FBCDE901102C4A2C4B2846D1
:108B2000414600E019E0FCF7C6FBDDE90132FCF745
:108B3000BCFB3A465B4605910890FCF715FB002507
:108B400088463A465B462846FCF7AFFB059B089AE9
:108B5000FCF7AEFB024600F076B90020B1F5801FAD
:108B600007DA352228461946FCF738FD05466FF02E
:108B7000340000EB2150A0F2FF300190C1F313004C
:108B800040F07F6141F0405102911249884223E058
:108B9000FFFF1F00FFFF0F000000F03F0000F07F0D
:108BA0000000404301FCFFFF800F00000000F0FFC9
:108BB0000000E0410000F043FFFFEF3F5555D53F77
:108BC0000000E03F4715F73FFE822B6544DF5DF86C
:108BD0000BAE543E8E980300D8BF4FF0000B0EDD55
:108BE000FE498142C8BF4FF0010B08DC01984FF0ED
:108BF000000B401C01900298A0F580100290F848EC
:108C00000299784400EBCB000B911090D0E900233F
:108C10002846FCF74AFB009010980791D0E9002302
:108C200028460B99FCF7A0FA02460B460020ED49B6
:108C3000FCF7B3FB05910B46024608900799009894
:108C4000FCF739FB0690E8488846002778440299EB
:108C500000680E904FF0005040EA610000EB8B403E
:108C600000F5002110980291D0E900230E98FCF73E
:108C70001CFB2A460B9BFCF71BFB3A464346FCF7C2
:108C80001AFB05460B9138464146029B0E9AFCF7AB
:108C900012FB079B009AFCF70BFB2A460B9BFCF789
:108CA00004FB059B089AFCF706FB0B911090069AB3
:108CB000434610461946FCF7FEFA05460246CB48E5
:108CC0000B46009106217844FFF7AEFC009B2A4634
:108CD0000291089010461946FCF7EDFA029B089A9B
:108CE000FCF7E9FA05460591434638461946069AC7
:108CF000FCF73AFA0B9B109AFCF7DDFA2A46059B23
:108D0000FCF732FA3A464346059108901046194658
:108D1000FCF7D1FA0022B64B00910C90FCF724FA34
:108D2000059B089AFCF720FA0D463A46B04B3846A8
:108D3000FCF7BBFA009B0C9AFCF7B7FA059B089A64
:108D4000FCF7B6FA11913A460C902B461046414674
:108D5000FCF7B1FA079100904346069A11990C98D6
:108D6000FCF7A9FA804603912B463A460B991098D6
:108D7000FCF7A1FA4246039BFCF7F6F90591804601
:108D80000B46024607990098FCF7EEF900200F46C3
:108D90000546079B009AFCF788FA4246059BFCF7BC
:108DA00087FA804609914FF06042924B2846394637
:108DB000FCF781FA009102908F4A8E4B4046099948
:108DC000FCF779FA804603918C4A8D4B2846394648
:108DD000FCF771FA4246039BFCF7C6F9894A7A44CC
:108DE00002EBCB03D3E90023FCF7BEF90690039115
:108DF0000198FCF70AFC0746DDE902030591069A93
:108E00000099FCF7B1F9804A7A4402EBCB0BDBE91D
:108E10000023FCF7A9F93A46059BFCF7A5F90025C4
:108E200088463A462846059BFCF73FFADBE90023D3
:108E3000FCF73BFA009B029AFCF737FA039B069A71
:108E4000FCF736FA0246002006900D98654FAAF10D
:108E50000103184301D16D4F069000200B4600908E
:108E600030462146FCF727FA82468B462346304699
:108E70001946009AFCF719FA2A464346FCF71BFAF2
:108E800052465B46FCF770F906468A462A46434638
:108E900021460098FCF70FFA04460D463246534629
:108EA000FCF762F95A4A8B46914226DBABEB020390
:108EB00053EA000210D122462B46FCF7F6F9804611
:108EC0000591544A544B30465146FCF74DF9424601
:108ED000059BFCF7ABFB30D20220FFF713FC40F2FE
:108EE000013200204FF0E041FCF778FB0A4639469A
:108EF00014B062F31E01BDE8F08D484B2BF0004228
:108F00009A421AD3464A0BEB020353EA000208D1F5
:108F100022462B46FCF7C9F932465346FCF786FB3E
:108F20000BD80220FFF7EEFBFFF7D4FB0A463946C9
:108F300014B062F31E01BDE8F08D2BF000403949FA
:108F4000394A01EB20514FF00008824223DA481CD5
:108F50004FF4801121FA00F05844344AC0F30A510A
:108F60007A44334BA1F2FF31CB4020EA0303C0F334
:108F7000130040F4801CC1F1140012682CFA00F8B0
:108F8000BBF1000FB8BFC8F1000820462946FCF726
:108F90008CF904460D4622462B4630465146FCF7D6
:108FA000E3F84FF0000B5A46224B58460591FCF768
:108FB00082F900900791204A204B58460599FCF70A
:108FC0007AF90491029022462B4658460599FCF7FF
:108FD0006CF932465346FCF76BF931E07AB60B0078
:108FE000F20B00000000F03F300C00005E0B0000B0
:108FF0000000084009C7EE3FFD033ADCF5015B14B1
:10900000E02F3EBE360A0000FC0900000000F0BF61
:1090100000009040FE822B654715973C00CC9040A5
:1090200000346F3F01FCFFFF0000E03F1C0900001F
:10903000FFFF0F00432EE63F396CA80C615C20BE99
:109040003F4A404BFCF737F9049B029AFCF78CF837
:1090500006468A46079B009AFCF786F804460D46AA
:10906000079B009AFCF721F932465346FCF720F99A
:10907000064622462B46099110461946FCF71BF975
:109080008346024630488A460B4605217844FFF75E
:10909000CBFA5A465346FCF70EF922462B46FCF70C
:1090A00007F982468B46324620462946099BFCF743
:1090B00002F93246099BFCF757F805910890002207
:1090C0004FF0804350465946FCF7EFF806460091B2
:1090D00052465B4620462946FCF7EDF83246009B97
:1090E000FCF75BF9059B089AFCF7DFF822462B4654
:1090F000FCF7DBF80022154BFCF7DAF80D460446C6
:1091000001EB08510815002810DC4246204629468C
:10911000FCF764FAFFF774FA042808BFFFF7DAFADD
:10912000424620462946FCF759FA044606980B4663
:1091300014B022463946BDE8F04DFCF7BCB800003B
:10914000EF39FAFE422EE63FC80700000000F03F6C
:1091500008B501210820FEF78DF840210D48FDF7E4
:1091600066FB80210B48FDF762FB4020ADF8000054
:1091700010208DF8030003208DF802006946054891
:10918000FDF777FA8020ADF8000069460148FDF749
:1091900070FA08BD000C014070B504460D46FDF79D
:1091A0002DFC1A20FDF7F0FB4FF480302B490860AE
:1091B00007E02A490868411E284A116008B900F0F2
:1091C0004FF8FDF767FC0128F3D0B020FDF7DCFB7A
:1091D0004FF480302149086007E020490868411EAB
:1091E0001E4A116008B900F03BF8FDF753FC012856
:1091F000F3D0E0B2FDF7C8FB4FF4803017490860A8
:1092000007E016490868411E144A116008B900F0C9
:1092100027F8FDF73FFC0128F3D0FDF715FCFDF71B
:10922000EDFB1B20FDF7B0FB4FF480300B490860CD
:1092300007E00A490868411E084A116008B900F0B1
:109240000FF8FDF727FC0128F3D00020FDF766FB9F
:109250002880FDF7F9FB002070BD0000EC00002025
:1092600000BFFEE770B504460D46FDF7C7FB1A20A8
:10927000FDF78AFB4FF480301D49086007E01C4968
:109280000868411E1A4A116008B9FFF7E9FFFDF7A7
:1092900001FC0128F3D0E0B2FDF776FB4FF48030FB
:1092A0001349086007E012490868411E104A11601E
:1092B00008B9FFF7D5FFFDF7EDFB0128F3D0E8B2C1
:1092C000FDF762FB4FF480300949086007E0084968
:1092D0000868411E064A116008B9FFF7C1FFFDF793
:1092E000D9FB0128F3D0FDF7AFFB002070BD0000D3
:1092F000EC0000202DE9F04106460F46FCF7BCF9D2
:1093000004000D4618BF0120284320F00040C0F1A2
:109310007F6000F1E040C00F0ED0301C18BF01206C
:10932000384320F00040C0F17F6000F1E040C00F02
:1093300004BF0120FFF7E6F920462946BDE8F08189
:1093400010B5044618480470FCF72EFD012017499B
:109350000860022C0CD142F21070154908800846B2
:1093600000884FF6FF7101EA4000124908801AE0B8
:10937000032C0CD140F6C4100D4908800846008823
:109380004FF6FF7101EA40000A4908800BE041F204
:10939000883007490880084600884FF6FF7101EAC7
:1093A00040000449088010BD24000020948121421F
:1093B000320000203400002070B504460D461646E9
:1093C00004EB4400264901EBC0000089022818DCA8
:1093D00004EB440001EBC000007C90BB4FF6FF7132
:1093E00001EA04303146FEF7F5F8012004EB4401B0
:1093F0001B4A02EBC101087410211A48FDF715FA47
:109400002CE004EB4400164901EBC0000089A8429F
:1094100018DA04EB440001EBC000007C88B14FF681
:10942000FF7101EA04300021FEF7D4F8002004EBBC
:1094300044010B4A02EBC101087410210948FDF7F1
:10944000F6F90BE0002004EB4401054A02EBC101F0
:10945000087404EB440102EBC101088170BD0000F7
:109460001E020020000C014010B5FDF793FF002004
:10947000524908709AE05148007800EB400050498A
:1094800001EBC000407B002867D04C48007800EB1F
:10949000400001EBC000407D90B14849097801EBE4
:1094A0004101474A02EBC101087BFEF7E5F80020C5
:1094B0004249097801EB4101414A02EBC10148757B
:1094C0003E48007800EB40003D4931F83000A0F202
:1094D000011020B1012816D002283CD127E03748DE
:1094E000007800EB4000364B03EBC000C2883348E5
:1094F000007800EB400003EBC00041882F48007863
:10950000FCF70AFD28E02D48007800EB40002C4BCA
:1095100003EBC000C2882948007800EB400003EB51
:10952000C000418825480078FDF754FC14E023482A
:10953000007800EB4000224B03EBC000C2881F48BC
:10954000007800EB400003EBC00041881B48007826
:10955000FCF7A4FE00E000BF23E01848007800EB11
:109560004000174901EBC000C07BD0B11349097816
:109570004FF6FF7202EA01300021FEF72BF80020BF
:109580000E49097801EB41010D4A02EBC101C87394
:109590000A49097801EB410102EBC101087BFEF7A2
:1095A00041F806480078401C0449087003480078D8
:1095B0000628FFF660AFFEF7CFFF10BD3301002095
:1095C0001E02002000C1814001C0804101C08041D5
:1095D00000C1814001C0804100C1814000C1814083
:1095E00001C0804101C0804100C1814000C1814073
:1095F00001C0804100C1814001C0804101C0804163
:1096000000C1814001C0804100C1814000C1814052
:1096100001C0804100C1814001C0804101C0804142
:1096200000C1814000C1814001C0804101C0804132
:1096300000C1814001C0804100C1814000C1814022
:1096400001C0804101C0804100C1814000C1814012
:1096500001C0804100C1814001C0804101C0804102
:1096600000C1814000C1814001C0804101C08041F2
:1096700000C1814001C0804100C1814000C18140E2
:1096800001C0804100C1814001C0804101C08041D2
:1096900000C1814001C0804100C1814000C18140C2
:1096A00001C0804101C0804100C1814000C18140B2
:1096B00001C0804100C1814001C0804101C08041A2
:1096C00000C1814000C0C101C30302C2C60607C772
:1096D00005C5C404CC0C0DCD0FCFCE0E0ACACB0BE2
:1096E000C90908C8D81819D91BDBDA1A1EDEDF1F12
:1096F000DD1D1CDC14D4D515D71716D6D21213D302
:1097000011D1D010F03031F133F3F23236F6F737B1
:10971000F53534F43CFCFD3DFF3F3EFEFA3A3BFBA1
:1097200039F9F83828E8E929EB2B2AEAEE2E2FEF51
:109730002DEDEC2CE42425E527E7E62622E2E323C1
:10974000E12120E0A06061A163A3A26266A6A767F1
:10975000A56564A46CACAD6DAF6F6EAEAA6A6BAB61
:1097600069A9A86878B8B979BB7B7ABABE7E7FBF91
:109770007DBDBC7CB47475B577B7B67672B2B37381
:10978000B17170B050909151935352929656579731
:10979000559594549C5C5D9D5F9F9E5E5A9A9B5B21
:1097A00099595898884849894B8B8A4A4E8E8F4FD1
:1097B0008D4D4C8C44848545874746868242438341
:1097C00041818040004000000000020004000000D1
:1097D0000400000004000000040000000002040077
:1097E00000040800250026000100020004001C00FF
:1097F0001D001E0000000000000000000000F03FFF
:10980000000000000000F83F000000000000000021
:109810000000004003B8E23F00000000000000002C
:1098200006D0CF43EBFD4C3E033333333333E33FBA
:10983000FFAB6FDBB66DDB3F4D268F515555D53FE6
:1098400001411DA96074D13F65DBC9934A86CD3FB4
:10985000EF4E454A287ECA3F3E5555555555C53FA2
:1098600093BDBE166CC166BF2CDE25AF6A56113F94
:10987000F16BD2C541BDBBBED0A4BE726937663E96
:109880000000000000000000A89800080000002070
:109890003C0100001A5700081C9900083C010020F8
:1098A00044070000F486000801181AC802011605D2
:1098B0001A88131027120E1202140101021AFF0156
:1098C0004B65FD0E2B05010E5B12C10E3A020E5ABE
:1098D000850E2A030ED3D2B884A24A046809010275
:1098E0000304060708090C6910DD02040608741B4E
:1098F0002101015BFFFF0E4A220EA13201A20A2ABA
:10990000C2103114380140124412401A0808A90448
:0C9910002112402A04181904011700005D
:04000005080050EDB2
:00000001FF
